:03000000020321D7
:0C032100787FE4F6D8FD758125020368A2
:10047800FF11213141516171013F065B4F666D7D6E
:0A048800077F6F777C395E79718081
:10043F00021D000002170000041100000000C10897
:0C044F0002080000020A0000020C00007D
:10049200EF1FAA0670011E4A600B7D78EDD394000F
:0504A20040EE1D80F793
:0104A7002232
:10000E00E4F522F523F524F5257D617F481204D809
:10001E00750E01D2B31204FE1204A8E4F5B2F5B1C6
:10002E00F5CAF5C9D2B07517037518E87D617F481A
:10003E001204D8900483E493FD7F681204D89004D0
:10004E0083E493FD7F6A1204D8900481E493FD7FCC
:10005E006C1204D8E5254524600302011EE52260DA
:10006E000302011EE52314602214603114604B1448
:10007E0060702404600302011E7517037518E87D75
:10008E00617F481204D8900483802275170C75186E
:10009E001C7D617F481204D8900482802D75171242
:1000AE007518C07D617F481204D8900482E493FDD8
:1000BE007F681204D8900483801B751717751898E3
:1000CE007D617F481204D8900481E493FD7F68120D
:1000DE0004D8900489E493FD7F6A1204D8900481B9
:1000EE00802675171C7518FC7D617F481204D89008
:1000FE000481E493FD7F681204D8900485E493FD97
:10010E007F6A1204D8900489E493FD7F6C1204D8A0
:10011E00E525452470030201F8E47F107E27FDFCDF
:10012E00AB14AA13A912A811C312040240030201B0
:10013E00F1E52260030201F8E52314602214603118
:10014E0014604B146070240460030201F8751703E9
:10015E007518E87D617F481204D89004838022755B
:10016E00170C7518447D617F481204D89004828064
:10017E002D7517127518C07D617F481204D8900432
:10018E0082E493FD7F681204D8900483801B751758
:10019E00177518987D617F481204D8900481E493F6
:1001AE00FD7F681204D8900489E493FD7F6A1204DF
:1001BE00D8900481802675171C7518FC7D617F48C8
:1001CE001204D8900481E493FD7F681204D8900441
:1001DE0085E493FD7F6A1204D8900489E493FD7F31
:1001EE006C8004E4FD7F481204D8D3E5239404E523
:1001FE002294004005E4F522F5231204BB8F202043
:10020E0006030200622003092004066325FF63240F
:10021E00FF30031120040EE525452460080523E573
:10022E00237002052220031130040EE525452460BB
:10023E0008E5231523700215223006071204BB8F22
:09024E002080F67520FF02006219
:0704FE00D288D2A8D2AF2280
:1004A800438E80E4F589758AD8758CFDD28CD2A9E3
:0304B800D2AF229E
:030003000204CA2A
:0E04CA00D2B3751D00751E01300802B2B032AB
:03000B0002025797
:10025700C0E0C0F0C083C082C0D075D000C000C06D
:0D02670001C002C003C004C005C006C007EE
:10027400E51E6401451D70350509E5097002050890
:10028400E51824D0FFE5173407FE7C007D32120305
:10029400AD8E0C8F0DE509B50D13E508B50C0EC236
:1002A400B3751D00751E00750800750900050BE582
:1002B4000B7002050AD39410E50A9427400AB20889
:1002C400B2B1750A00750B00E4FAF9F8E5142401DB
:1002D400F514EA3513F513E93512F512E83511F57D
:1002E40011E47F207E4EFDFCAB14AA13A912A811C1
:1002F400D3120402400C75140075130075120075B6
:020304001100E6
:10030600D007D006D005D004D003D002D001D0004B
:0B031600D0D0D082D083D0F0D0E032F5
:0D04E600D2CCD2CD0000C2CD0000C2CC228D
:0B04F300D2CCC2CD0000D2CD00002210
:10041800E4FEEF30E704D2CD8002C2CD0000D2CC9A
:10042800EF25E0FF0000C2CC0EBE08E6D2CD0000EA
:06043800D2CC0000C2CC92
:01043E00229B
:0E04D8001204E6120418AF051204180204F311
:10045C00D2CDE4FFFED2CCEF25E0FF30CD010FC2B0
:0B046C00CC0EBE08F0D2CDD2CCC2CC2A
:010477002262
:0E04BB001204E67F4912041812045C1204F3C6
:0104C9002210
:10032D0002000EE493A3F8E493A34003F68001F2D8
:10033D0008DFF48029E493A3F85407240CC8C333D1
:10034D00C4540F4420C8834004F456800146F6DFA0
:10035D00E4800B010204081020408090043FE47EED
:10036D00019360BCA3FF543F30E509541FFEE49395
:10037D00A360010ECF54C025E060A840B8E493A35C
:10038D00FAE493A3F8E493A3C8C582C8CAC583CA87
:10039D00F0A3C8C582C8CAC583CADFE9DEE780BE3F
:01045B0000A0
:1003AD00BC000BBE0029EF8DF084FFADF022E4CC34
:1003BD00F875F008EF2FFFEE33FEEC33FCEE9DECFD
:1003CD00984005FCEE9DFE0FD5F0E9E4CEFD22ED43
:1003DD00F8F5F0EE8420D21CFEADF075F008EF2F8D
:1003ED00FFED33FD4007985006D5F0F222C398FD7E
:0503FD000FD5F0EA221B
:10040200EB9FF5F0EA9E42F0E99D42F0EC6480C871
:0604120064809845F02211
:00000001FF
